{
  "_format": "hh-sol-artifact-1",
  "contractName": "TaskVault",
  "sourceName": "contracts/TaskVault.sol",
  "abi": [
    {
      "inputs": [
        {
          "internalType": "address",
          "name": "_usdcToken",
          "type": "address"
        },
        {
          "internalType": "uint256",
          "name": "_freelancerDeposit",
          "type": "uint256"
        }
      ],
      "stateMutability": "nonpayable",
      "type": "constructor"
    },
    {
      "anonymous": false,
      "inputs": [
        {
          "indexed": true,
          "internalType": "uint256",
          "name": "jobId",
          "type": "uint256"
        },
        {
          "indexed": true,
          "internalType": "address",
          "name": "freelancer",
          "type": "address"
        }
      ],
      "name": "JobAccepted",
      "type": "event"
    },
    {
      "anonymous": false,
      "inputs": [
        {
          "indexed": true,
          "internalType": "uint256",
          "name": "_jobIndex",
          "type": "uint256"
        },
        {
          "components": [
            {
              "internalType": "string",
              "name": "jobName",
              "type": "string"
            },
            {
              "internalType": "string",
              "name": "jobDescription",
              "type": "string"
            },
            {
              "internalType": "uint256",
              "name": "jobPrice",
              "type": "uint256"
            },
            {
              "internalType": "uint256",
              "name": "jobDeadline",
              "type": "uint256"
            },
            {
              "internalType": "enum TaskVault.JobStatus",
              "name": "status",
              "type": "uint8"
            },
            {
              "internalType": "address",
              "name": "jobClient",
              "type": "address"
            },
            {
              "internalType": "address",
              "name": "jobFreelancer",
              "type": "address"
            }
          ],
          "indexed": false,
          "internalType": "struct TaskVault.Job",
          "name": "job",
          "type": "tuple"
        }
      ],
      "name": "JobCreated",
      "type": "event"
    },
    {
      "anonymous": false,
      "inputs": [
        {
          "indexed": true,
          "internalType": "uint256",
          "name": "jobId",
          "type": "uint256"
        },
        {
          "indexed": true,
          "internalType": "address",
          "name": "client",
          "type": "address"
        }
      ],
      "name": "JobDisputed",
      "type": "event"
    },
    {
      "anonymous": false,
      "inputs": [
        {
          "indexed": true,
          "internalType": "uint256",
          "name": "_jobIndex",
          "type": "uint256"
        },
        {
          "components": [
            {
              "internalType": "uint256",
              "name": "jobIndex",
              "type": "uint256"
            },
            {
              "internalType": "string",
              "name": "githubLink",
              "type": "string"
            }
          ],
          "indexed": false,
          "internalType": "struct TaskVault.Submission",
          "name": "submission",
          "type": "tuple"
        }
      ],
      "name": "JobSubmitted",
      "type": "event"
    },
    {
      "anonymous": false,
      "inputs": [
        {
          "indexed": true,
          "internalType": "uint256",
          "name": "jobId",
          "type": "uint256"
        },
        {
          "indexed": true,
          "internalType": "address",
          "name": "freelancer",
          "type": "address"
        },
        {
          "indexed": false,
          "internalType": "uint256",
          "name": "amount",
          "type": "uint256"
        }
      ],
      "name": "PaymentReleased",
      "type": "event"
    },
    {
      "anonymous": false,
      "inputs": [
        {
          "indexed": true,
          "internalType": "uint256",
          "name": "jobId",
          "type": "uint256"
        },
        {
          "indexed": false,
          "internalType": "bool",
          "name": "freelancerWins",
          "type": "bool"
        }
      ],
      "name": "jobResolved",
      "type": "event"
    },
    {
      "inputs": [
        {
          "internalType": "uint256",
          "name": "_jobIndex",
          "type": "uint256"
        }
      ],
      "name": "acceptJobListing",
      "outputs": [],
      "stateMutability": "payable",
      "type": "function"
    },
    {
      "inputs": [
        {
          "internalType": "string",
          "name": "_jobName",
          "type": "string"
        },
        {
          "internalType": "string",
          "name": "_jobDescription",
          "type": "string"
        },
        {
          "internalType": "uint256",
          "name": "_jobPrice",
          "type": "uint256"
        },
        {
          "internalType": "uint256",
          "name": "_jobDeadline",
          "type": "uint256"
        }
      ],
      "name": "createJobListing",
      "outputs": [],
      "stateMutability": "payable",
      "type": "function"
    },
    {
      "inputs": [
        {
          "internalType": "uint256",
          "name": "_jobIndex",
          "type": "uint256"
        }
      ],
      "name": "disputeJob",
      "outputs": [],
      "stateMutability": "nonpayable",
      "type": "function"
    },
    {
      "inputs": [
        {
          "internalType": "uint256",
          "name": "",
          "type": "uint256"
        }
      ],
      "name": "jobs",
      "outputs": [
        {
          "internalType": "string",
          "name": "jobName",
          "type": "string"
        },
        {
          "internalType": "string",
          "name": "jobDescription",
          "type": "string"
        },
        {
          "internalType": "uint256",
          "name": "jobPrice",
          "type": "uint256"
        },
        {
          "internalType": "uint256",
          "name": "jobDeadline",
          "type": "uint256"
        },
        {
          "internalType": "enum TaskVault.JobStatus",
          "name": "status",
          "type": "uint8"
        },
        {
          "internalType": "address",
          "name": "jobClient",
          "type": "address"
        },
        {
          "internalType": "address",
          "name": "jobFreelancer",
          "type": "address"
        }
      ],
      "stateMutability": "view",
      "type": "function"
    },
    {
      "inputs": [
        {
          "internalType": "uint256",
          "name": "_jobIndex",
          "type": "uint256"
        }
      ],
      "name": "releasePayment",
      "outputs": [],
      "stateMutability": "nonpayable",
      "type": "function"
    },
    {
      "inputs": [
        {
          "internalType": "uint256",
          "name": "_jobIndex",
          "type": "uint256"
        },
        {
          "internalType": "bool",
          "name": "_freelancerWins",
          "type": "bool"
        }
      ],
      "name": "resolveDispute",
      "outputs": [],
      "stateMutability": "nonpayable",
      "type": "function"
    },
    {
      "inputs": [
        {
          "internalType": "uint256",
          "name": "_jobIndex",
          "type": "uint256"
        },
        {
          "internalType": "string",
          "name": "_githubLink",
          "type": "string"
        }
      ],
      "name": "submitJob",
      "outputs": [],
      "stateMutability": "nonpayable",
      "type": "function"
    },
    {
      "inputs": [],
      "name": "usdcToken",
      "outputs": [
        {
          "internalType": "contract IERC20",
          "name": "",
          "type": "address"
        }
      ],
      "stateMutability": "view",
      "type": "function"
    }
  ],
  "bytecode": "0x60806040523480156200001157600080fd5b5060405162002c5b38038062002c5b83398181016040528101906200003791906200016c565b816000806101000a81548173ffffffffffffffffffffffffffffffffffffffff021916908373ffffffffffffffffffffffffffffffffffffffff16021790555033600160006101000a81548173ffffffffffffffffffffffffffffffffffffffff021916908373ffffffffffffffffffffffffffffffffffffffff160217905550806002819055505050620001b3565b600080fd5b600073ffffffffffffffffffffffffffffffffffffffff82169050919050565b6000620000f982620000cc565b9050919050565b6200010b81620000ec565b81146200011757600080fd5b50565b6000815190506200012b8162000100565b92915050565b6000819050919050565b620001468162000131565b81146200015257600080fd5b50565b60008151905062000166816200013b565b92915050565b60008060408385031215620001865762000185620000c7565b5b600062000196858286016200011a565b9250506020620001a98582860162000155565b9150509250929050565b612a9880620001c36000396000f3fe60806040526004361061007b5760003560e01c806389767c6c1161004e57806389767c6c1461014057806396bede8914610169578063c8622a1414610185578063d93d9beb146101a15761007b565b806311eac85514610080578063180aedf3146100ab57806334b25ee2146100ee57806388685cd914610117575b600080fd5b34801561008c57600080fd5b506100956101ca565b6040516100a291906117b3565b60405180910390f35b3480156100b757600080fd5b506100d260048036038101906100cd9190611818565b6101ee565b6040516100e5979695949392919061197c565b60405180910390f35b3480156100fa57600080fd5b5061011560048036038101906101109190611a31565b61039d565b005b34801561012357600080fd5b5061013e60048036038101906101399190611818565b6107de565b005b34801561014c57600080fd5b5061016760048036038101906101629190611ba6565b610c07565b005b610183600480360381019061017e9190611818565b610ef7565b005b61019f600480360381019061019a9190611c02565b61125a565b005b3480156101ad57600080fd5b506101c860048036038101906101c39190611818565b611554565b005b60008054906101000a900473ffffffffffffffffffffffffffffffffffffffff1681565b600381815481106101fe57600080fd5b906000526020600020906006020160009150905080600001805461022190611cd0565b80601f016020809104026020016040519081016040528092919081815260200182805461024d90611cd0565b801561029a5780601f1061026f5761010080835404028352916020019161029a565b820191906000526020600020905b81548152906001019060200180831161027d57829003601f168201915b5050505050908060010180546102af90611cd0565b80601f01602080910402602001604051908101604052809291908181526020018280546102db90611cd0565b80156103285780601f106102fd57610100808354040283529160200191610328565b820191906000526020600020905b81548152906001019060200180831161030b57829003601f168201915b5050505050908060020154908060030154908060040160009054906101000a900460ff16908060040160019054906101000a900473ffffffffffffffffffffffffffffffffffffffff16908060050160009054906101000a900473ffffffffffffffffffffffffffffffffffffffff16905087565b600160009054906101000a900473ffffffffffffffffffffffffffffffffffffffff1673ffffffffffffffffffffffffffffffffffffffff163373ffffffffffffffffffffffffffffffffffffffff161461042d576040517f08c379a000000000000000000000000000000000000000000000000000000000815260040161042490611d73565b60405180910390fd5b60046006811115610441576104406118e4565b5b6003838154811061045557610454611d93565b5b906000526020600020906006020160040160009054906101000a900460ff166006811115610486576104856118e4565b5b146104c6576040517f08c379a00000000000000000000000000000000000000000000000000000000081526004016104bd90611e0e565b60405180910390fd5b6000600383815481106104dc576104db611d93565b5b90600052602060002090600602016002015490506000600254826105009190611e5d565b9050821561062f5760008054906101000a900473ffffffffffffffffffffffffffffffffffffffff1673ffffffffffffffffffffffffffffffffffffffff1663a9059cbb6003868154811061055857610557611d93565b5b906000526020600020906006020160050160009054906101000a900473ffffffffffffffffffffffffffffffffffffffff16836040518363ffffffff1660e01b81526004016105a8929190611e91565b6020604051808303816000875af11580156105c7573d6000803e3d6000fd5b505050506040513d601f19601f820116820180604052508101906105eb9190611ecf565b61062a576040517f08c379a000000000000000000000000000000000000000000000000000000000815260040161062190611f6e565b60405180910390fd5b610752565b60008054906101000a900473ffffffffffffffffffffffffffffffffffffffff1673ffffffffffffffffffffffffffffffffffffffff1663a9059cbb6003868154811061067f5761067e611d93565b5b906000526020600020906006020160040160019054906101000a900473ffffffffffffffffffffffffffffffffffffffff16836040518363ffffffff1660e01b81526004016106cf929190611e91565b6020604051808303816000875af11580156106ee573d6000803e3d6000fd5b505050506040513d601f19601f820116820180604052508101906107129190611ecf565b610751576040517f08c379a000000000000000000000000000000000000000000000000000000000815260040161074890612000565b60405180910390fd5b5b60056003858154811061076857610767611d93565b5b906000526020600020906006020160040160006101000a81548160ff0219169083600681111561079b5761079a6118e4565b5b0217905550837fdf700d8d0b1c32de6b916bb13ac1326785bf469bf35e02fce05f32e9d8a91603846040516107d0919061202f565b60405180910390a250505050565b3373ffffffffffffffffffffffffffffffffffffffff166003828154811061080957610808611d93565b5b906000526020600020906006020160040160019054906101000a900473ffffffffffffffffffffffffffffffffffffffff1673ffffffffffffffffffffffffffffffffffffffff1614610891576040517f08c379a0000000000000000000000000000000000000000000000000000000008152600401610888906120bc565b60405180910390fd5b600260068111156108a5576108a46118e4565b5b600382815481106108b9576108b8611d93565b5b906000526020600020906006020160040160009054906101000a900460ff1660068111156108ea576108e96118e4565b5b1461092a576040517f08c379a000000000000000000000000000000000000000000000000000000000815260040161092190612128565b60405180910390fd5b60068081111561093d5761093c6118e4565b5b6003828154811061095157610950611d93565b5b906000526020600020906006020160040160009054906101000a900460ff166006811115610982576109816118e4565b5b036109c2576040517f08c379a00000000000000000000000000000000000000000000000000000000081526004016109b990612194565b60405180910390fd5b6006600382815481106109d8576109d7611d93565b5b906000526020600020906006020160040160006101000a81548160ff02191690836006811115610a0b57610a0a6118e4565b5b0217905550600060038281548110610a2657610a25611d93565b5b9060005260206000209060060201600201549050600060025482610a4a9190611e5d565b905060008054906101000a900473ffffffffffffffffffffffffffffffffffffffff1673ffffffffffffffffffffffffffffffffffffffff1663a9059cbb60038581548110610a9c57610a9b611d93565b5b906000526020600020906006020160050160009054906101000a900473ffffffffffffffffffffffffffffffffffffffff16836040518363ffffffff1660e01b8152600401610aec929190611e91565b6020604051808303816000875af1158015610b0b573d6000803e3d6000fd5b505050506040513d601f19601f82011682018060405250810190610b2f9190611ecf565b610b6e576040517f08c379a0000000000000000000000000000000000000000000000000000000008152600401610b6590611f6e565b60405180910390fd5b60038381548110610b8257610b81611d93565b5b906000526020600020906006020160050160009054906101000a900473ffffffffffffffffffffffffffffffffffffffff1673ffffffffffffffffffffffffffffffffffffffff16837f21d71db5be59bb9fa133895586b7404307dd33fb93b16db09dc6f1d9d7d231b083604051610bfa91906121b4565b60405180910390a3505050565b3373ffffffffffffffffffffffffffffffffffffffff1660038381548110610c3257610c31611d93565b5b906000526020600020906006020160050160009054906101000a900473ffffffffffffffffffffffffffffffffffffffff1673ffffffffffffffffffffffffffffffffffffffff1614610cba576040517f08c379a0000000000000000000000000000000000000000000000000000000008152600401610cb190612241565b60405180910390fd5b60016006811115610cce57610ccd6118e4565b5b60038381548110610ce257610ce1611d93565b5b906000526020600020906006020160040160009054906101000a900460ff166006811115610d1357610d126118e4565b5b14610d53576040517f08c379a0000000000000000000000000000000000000000000000000000000008152600401610d4a906122ad565b60405180910390fd5b60036006811115610d6757610d666118e4565b5b60038381548110610d7b57610d7a611d93565b5b906000526020600020906006020160040160009054906101000a900460ff166006811115610dac57610dab6118e4565b5b03610dec576040517f08c379a0000000000000000000000000000000000000000000000000000000008152600401610de390612319565b60405180910390fd5b4260038381548110610e0157610e00611d93565b5b90600052602060002090600602016003015411610e53576040517f08c379a0000000000000000000000000000000000000000000000000000000008152600401610e4a90612385565b60405180910390fd5b60006040518060400160405280848152602001838152509050600260038481548110610e8257610e81611d93565b5b906000526020600020906006020160040160006101000a81548160ff02191690836006811115610eb557610eb46118e4565b5b0217905550827f45d106629e0ebc9ef1c4695f260ba2d627a0c4d5a1aeaaca0523ff727e8557f682604051610eea919061243b565b60405180910390a2505050565b3373ffffffffffffffffffffffffffffffffffffffff1660038281548110610f2257610f21611d93565b5b906000526020600020906006020160040160019054906101000a900473ffffffffffffffffffffffffffffffffffffffff1673ffffffffffffffffffffffffffffffffffffffff1603610faa576040517f08c379a0000000000000000000000000000000000000000000000000000000008152600401610fa1906124cf565b60405180910390fd5b600073ffffffffffffffffffffffffffffffffffffffff1660038281548110610fd657610fd5611d93565b5b906000526020600020906006020160050160009054906101000a900473ffffffffffffffffffffffffffffffffffffffff1673ffffffffffffffffffffffffffffffffffffffff161461105e576040517f08c379a00000000000000000000000000000000000000000000000000000000081526004016110559061253b565b60405180910390fd5b60008054906101000a900473ffffffffffffffffffffffffffffffffffffffff1673ffffffffffffffffffffffffffffffffffffffff166323b872dd33600160009054906101000a900473ffffffffffffffffffffffffffffffffffffffff166002546040518463ffffffff1660e01b81526004016110df9392919061257c565b6020604051808303816000875af11580156110fe573d6000803e3d6000fd5b505050506040513d601f19601f820116820180604052508101906111229190611ecf565b611161576040517f08c379a000000000000000000000000000000000000000000000000000000000815260040161115890612625565b60405180910390fd5b336003828154811061117657611175611d93565b5b906000526020600020906006020160050160006101000a81548173ffffffffffffffffffffffffffffffffffffffff021916908373ffffffffffffffffffffffffffffffffffffffff1602179055506001600382815481106111db576111da611d93565b5b906000526020600020906006020160040160006101000a81548160ff0219169083600681111561120e5761120d6118e4565b5b02179055503373ffffffffffffffffffffffffffffffffffffffff16817f4426e4a90a9570c8f678a263b11785eaaade8b79d76d18c43d4d8e00062e4f8360405160405180910390a350565b60008054906101000a900473ffffffffffffffffffffffffffffffffffffffff1673ffffffffffffffffffffffffffffffffffffffff166323b872dd33600160009054906101000a900473ffffffffffffffffffffffffffffffffffffffff16856040518463ffffffff1660e01b81526004016112d99392919061257c565b6020604051808303816000875af11580156112f8573d6000803e3d6000fd5b505050506040513d601f19601f8201168201806040525081019061131c9190611ecf565b61135b576040517f08c379a000000000000000000000000000000000000000000000000000000000815260040161135290612625565b60405180910390fd5b60006040518060e0016040528086815260200185815260200184815260200183815260200160006006811115611394576113936118e4565b5b81526020013373ffffffffffffffffffffffffffffffffffffffff168152602001600073ffffffffffffffffffffffffffffffffffffffff1681525090506003819080600181540180825580915050600190039060005260206000209060060201600090919091909150600082015181600001908161141391906127e7565b50602082015181600101908161142991906127e7565b50604082015181600201556060820151816003015560808201518160040160006101000a81548160ff02191690836006811115611469576114686118e4565b5b021790555060a08201518160040160016101000a81548173ffffffffffffffffffffffffffffffffffffffff021916908373ffffffffffffffffffffffffffffffffffffffff16021790555060c08201518160050160006101000a81548173ffffffffffffffffffffffffffffffffffffffff021916908373ffffffffffffffffffffffffffffffffffffffff16021790555050506000600160038054905061151291906128b9565b9050807fb8e0b5a99173b86a17ab860fa1beb4d1972c32285ab3d1791bffcd9cdcea8a628360405161154491906129ae565b60405180910390a2505050505050565b3373ffffffffffffffffffffffffffffffffffffffff166003828154811061157f5761157e611d93565b5b906000526020600020906006020160040160019054906101000a900473ffffffffffffffffffffffffffffffffffffffff1673ffffffffffffffffffffffffffffffffffffffff1614611607576040517f08c379a00000000000000000000000000000000000000000000000000000000081526004016115fe90612a42565b60405180910390fd5b6002600681111561161b5761161a6118e4565b5b6003828154811061162f5761162e611d93565b5b906000526020600020906006020160040160009054906101000a900460ff1660068111156116605761165f6118e4565b5b146116a0576040517f08c379a000000000000000000000000000000000000000000000000000000000815260040161169790612128565b60405180910390fd5b6004600382815481106116b6576116b5611d93565b5b906000526020600020906006020160040160006101000a81548160ff021916908360068111156116e9576116e86118e4565b5b02179055503373ffffffffffffffffffffffffffffffffffffffff16817e7a04c23fac86b9f00290f402ccec895256f0b46ad331c80038b783acbfe41960405160405180910390a350565b600073ffffffffffffffffffffffffffffffffffffffff82169050919050565b6000819050919050565b600061177961177461176f84611734565b611754565b611734565b9050919050565b600061178b8261175e565b9050919050565b600061179d82611780565b9050919050565b6117ad81611792565b82525050565b60006020820190506117c860008301846117a4565b92915050565b6000604051905090565b600080fd5b600080fd5b6000819050919050565b6117f5816117e2565b811461180057600080fd5b50565b600081359050611812816117ec565b92915050565b60006020828403121561182e5761182d6117d8565b5b600061183c84828501611803565b91505092915050565b600081519050919050565b600082825260208201905092915050565b60005b8381101561187f578082015181840152602081019050611864565b60008484015250505050565b6000601f19601f8301169050919050565b60006118a782611845565b6118b18185611850565b93506118c1818560208601611861565b6118ca8161188b565b840191505092915050565b6118de816117e2565b82525050565b7f4e487b7100000000000000000000000000000000000000000000000000000000600052602160045260246000fd5b60078110611924576119236118e4565b5b50565b600081905061193582611913565b919050565b600061194582611927565b9050919050565b6119558161193a565b82525050565b600061196682611734565b9050919050565b6119768161195b565b82525050565b600060e0820190508181036000830152611996818a61189c565b905081810360208301526119aa818961189c565b90506119b960408301886118d5565b6119c660608301876118d5565b6119d3608083018661194c565b6119e060a083018561196d565b6119ed60c083018461196d565b98975050505050505050565b60008115159050919050565b611a0e816119f9565b8114611a1957600080fd5b50565b600081359050611a2b81611a05565b92915050565b60008060408385031215611a4857611a476117d8565b5b6000611a5685828601611803565b9250506020611a6785828601611a1c565b9150509250929050565b600080fd5b600080fd5b7f4e487b7100000000000000000000000000000000000000000000000000000000600052604160045260246000fd5b611ab38261188b565b810181811067ffffffffffffffff82111715611ad257611ad1611a7b565b5b80604052505050565b6000611ae56117ce565b9050611af18282611aaa565b919050565b600067ffffffffffffffff821115611b1157611b10611a7b565b5b611b1a8261188b565b9050602081019050919050565b82818337600083830152505050565b6000611b49611b4484611af6565b611adb565b905082815260208101848484011115611b6557611b64611a76565b5b611b70848285611b27565b509392505050565b600082601f830112611b8d57611b8c611a71565b5b8135611b9d848260208601611b36565b91505092915050565b60008060408385031215611bbd57611bbc6117d8565b5b6000611bcb85828601611803565b925050602083013567ffffffffffffffff811115611bec57611beb6117dd565b5b611bf885828601611b78565b9150509250929050565b60008060008060808587031215611c1c57611c1b6117d8565b5b600085013567ffffffffffffffff811115611c3a57611c396117dd565b5b611c4687828801611b78565b945050602085013567ffffffffffffffff811115611c6757611c666117dd565b5b611c7387828801611b78565b9350506040611c8487828801611803565b9250506060611c9587828801611803565b91505092959194509250565b7f4e487b7100000000000000000000000000000000000000000000000000000000600052602260045260246000fd5b60006002820490506001821680611ce857607f821691505b602082108103611cfb57611cfa611ca1565b5b50919050565b7f4f6e6c792074686520636f6e7472616374206465706c6f7965722063616e207260008201527f65736f6c76652061206469737075746500000000000000000000000000000000602082015250565b6000611d5d603083611850565b9150611d6882611d01565b604082019050919050565b60006020820190508181036000830152611d8c81611d50565b9050919050565b7f4e487b7100000000000000000000000000000000000000000000000000000000600052603260045260246000fd5b7f4a6f62206e6f7420646973707574656400000000000000000000000000000000600082015250565b6000611df8601083611850565b9150611e0382611dc2565b602082019050919050565b60006020820190508181036000830152611e2781611deb565b9050919050565b7f4e487b7100000000000000000000000000000000000000000000000000000000600052601160045260246000fd5b6000611e68826117e2565b9150611e73836117e2565b9250828201905080821115611e8b57611e8a611e2e565b5b92915050565b6000604082019050611ea6600083018561196d565b611eb360208301846118d5565b9392505050565b600081519050611ec981611a05565b92915050565b600060208284031215611ee557611ee46117d8565b5b6000611ef384828501611eba565b91505092915050565b7f4661696c656420746f207472616e73666572205553444320746f20667265656c60008201527f616e636572000000000000000000000000000000000000000000000000000000602082015250565b6000611f58602583611850565b9150611f6382611efc565b604082019050919050565b60006020820190508181036000830152611f8781611f4b565b9050919050565b7f4661696c656420746f207472616e73666572205553444320746f20636c69656e60008201527f7400000000000000000000000000000000000000000000000000000000000000602082015250565b6000611fea602183611850565b9150611ff582611f8e565b604082019050919050565b6000602082019050818103600083015261201981611fdd565b9050919050565b612029816119f9565b82525050565b60006020820190506120446000830184612020565b92915050565b7f4f6e6c792074686520636c69656e742063616e2072656c65617365207061796d60008201527f656e740000000000000000000000000000000000000000000000000000000000602082015250565b60006120a6602383611850565b91506120b18261204a565b604082019050919050565b600060208201905081810360008301526120d581612099565b9050919050565b7f4a6f62206e6f7420636f6d706c65746564000000000000000000000000000000600082015250565b6000612112601183611850565b915061211d826120dc565b602082019050919050565b6000602082019050818103600083015261214181612105565b9050919050565b7f4a6f6220616c7265616479207061696400000000000000000000000000000000600082015250565b600061217e601083611850565b915061218982612148565b602082019050919050565b600060208201905081810360008301526121ad81612171565b9050919050565b60006020820190506121c960008301846118d5565b92915050565b7f4f6e6c792074686520667265656c616e6365722063616e207375626d6974206160008201527f206a6f6200000000000000000000000000000000000000000000000000000000602082015250565b600061222b602483611850565b9150612236826121cf565b604082019050919050565b6000602082019050818103600083015261225a8161221e565b9050919050565b7f4a6f62206e6f7420616363657074656400000000000000000000000000000000600082015250565b6000612297601083611850565b91506122a282612261565b602082019050919050565b600060208201905081810360008301526122c68161228a565b9050919050565b7f4a6f6220616c7265616479207375626d69747465640000000000000000000000600082015250565b6000612303601583611850565b915061230e826122cd565b602082019050919050565b60006020820190508181036000830152612332816122f6565b9050919050565b7f4a6f6220646561646c696e652068617320706173736564000000000000000000600082015250565b600061236f601783611850565b915061237a82612339565b602082019050919050565b6000602082019050818103600083015261239e81612362565b9050919050565b6123ae816117e2565b82525050565b600082825260208201905092915050565b60006123d082611845565b6123da81856123b4565b93506123ea818560208601611861565b6123f38161188b565b840191505092915050565b600060408301600083015161241660008601826123a5565b506020830151848203602086015261242e82826123c5565b9150508091505092915050565b6000602082019050818103600083015261245581846123fe565b905092915050565b7f436c69656e742063616e6e6f7420616363657074207468656972206f776e206a60008201527f6f62000000000000000000000000000000000000000000000000000000000000602082015250565b60006124b9602283611850565b91506124c48261245d565b604082019050919050565b600060208201905081810360008301526124e8816124ac565b9050919050565b7f4a6f6220616c726561647920686173206120667265656c616e63657200000000600082015250565b6000612525601c83611850565b9150612530826124ef565b602082019050919050565b6000602082019050818103600083015261255481612518565b9050919050565b600061256682611780565b9050919050565b6125768161255b565b82525050565b6000606082019050612591600083018661196d565b61259e602083018561256d565b6125ab60408301846118d5565b949350505050565b7f4661696c656420746f207472616e73666572205553444320746f20657363726f60008201527f7700000000000000000000000000000000000000000000000000000000000000602082015250565b600061260f602183611850565b915061261a826125b3565b604082019050919050565b6000602082019050818103600083015261263e81612602565b9050919050565b60008190508160005260206000209050919050565b60006020601f8301049050919050565b600082821b905092915050565b6000600883026126a77fffffffffffffffffffffffffffffffffffffffffffffffffffffffffffffffff8261266a565b6126b1868361266a565b95508019841693508086168417925050509392505050565b60006126e46126df6126da846117e2565b611754565b6117e2565b9050919050565b6000819050919050565b6126fe836126c9565b61271261270a826126eb565b848454612677565b825550505050565b600090565b61272761271a565b6127328184846126f5565b505050565b5b818110156127565761274b60008261271f565b600181019050612738565b5050565b601f82111561279b5761276c81612645565b6127758461265a565b81016020851015612784578190505b6127986127908561265a565b830182612737565b50505b505050565b600082821c905092915050565b60006127be600019846008026127a0565b1980831691505092915050565b60006127d783836127ad565b9150826002028217905092915050565b6127f082611845565b67ffffffffffffffff81111561280957612808611a7b565b5b6128138254611cd0565b61281e82828561275a565b600060209050601f831160018114612851576000841561283f578287015190505b61284985826127cb565b8655506128b1565b601f19841661285f86612645565b60005b8281101561288757848901518255600182019150602085019450602081019050612862565b868310156128a457848901516128a0601f8916826127ad565b8355505b6001600288020188555050505b505050505050565b60006128c4826117e2565b91506128cf836117e2565b92508282039050818111156128e7576128e6611e2e565b5b92915050565b6128f68161193a565b82525050565b6129058161195b565b82525050565b600060e083016000830151848203600086015261292882826123c5565b9150506020830151848203602086015261294282826123c5565b915050604083015161295760408601826123a5565b50606083015161296a60608601826123a5565b50608083015161297d60808601826128ed565b5060a083015161299060a08601826128fc565b5060c08301516129a360c08601826128fc565b508091505092915050565b600060208201905081810360008301526129c8818461290b565b905092915050565b7f4f6e6c792074686520636c69656e742063616e20646973707574652061206a6f60008201527f6200000000000000000000000000000000000000000000000000000000000000602082015250565b6000612a2c602183611850565b9150612a37826129d0565b604082019050919050565b60006020820190508181036000830152612a5b81612a1f565b905091905056fea26469706673582212202e65597b3e6c71df57dd15fcec6a950a3ca59adff710d0d60ebcf3727fd886d164736f6c63430008110033",
  "linkReferences": {},
  "deployedLinkReferences": {}
}